{
  "_format": "hh-sol-artifact-1",
  "contractName": "NFT",
  "sourceName": "contracts/NFT.sol",
  "abi": [
    {
      "inputs": [
        {
          "internalType": "address",
          "name": "marketplaceAddress",
          "type": "address"
        }
      ],
      "stateMutability": "nonpayable",
      "type": "constructor"
    },
    {
      "anonymous": false,
      "inputs": [
        {
          "indexed": true,
          "internalType": "address",
          "name": "owner",
          "type": "address"
        },
        {
          "indexed": true,
          "internalType": "address",
          "name": "approved",
          "type": "address"
        },
        {
          "indexed": true,
          "internalType": "uint256",
          "name": "tokenId",
          "type": "uint256"
        }
      ],
      "name": "Approval",
      "type": "event"
    },
    {
      "anonymous": false,
      "inputs": [
        {
          "indexed": true,
          "internalType": "address",
          "name": "owner",
          "type": "address"
        },
        {
          "indexed": true,
          "internalType": "address",
          "name": "operator",
          "type": "address"
        },
        {
          "indexed": false,
          "internalType": "bool",
          "name": "approved",
          "type": "bool"
        }
      ],
      "name": "ApprovalForAll",
      "type": "event"
    },
    {
      "anonymous": false,
      "inputs": [
        {
          "indexed": true,
          "internalType": "address",
          "name": "from",
          "type": "address"
        },
        {
          "indexed": true,
          "internalType": "address",
          "name": "to",
          "type": "address"
        },
        {
          "indexed": true,
          "internalType": "uint256",
          "name": "tokenId",
          "type": "uint256"
        }
      ],
      "name": "Transfer",
      "type": "event"
    },
    {
      "inputs": [
        {
          "internalType": "address",
          "name": "to",
          "type": "address"
        },
        {
          "internalType": "uint256",
          "name": "tokenId",
          "type": "uint256"
        }
      ],
      "name": "approve",
      "outputs": [],
      "stateMutability": "nonpayable",
      "type": "function"
    },
    {
      "inputs": [
        {
          "internalType": "address",
          "name": "owner",
          "type": "address"
        }
      ],
      "name": "balanceOf",
      "outputs": [
        {
          "internalType": "uint256",
          "name": "",
          "type": "uint256"
        }
      ],
      "stateMutability": "view",
      "type": "function"
    },
    {
      "inputs": [
        {
          "internalType": "string",
          "name": "tokenURI",
          "type": "string"
        }
      ],
      "name": "createToken",
      "outputs": [
        {
          "internalType": "uint256",
          "name": "",
          "type": "uint256"
        }
      ],
      "stateMutability": "nonpayable",
      "type": "function"
    },
    {
      "inputs": [
        {
          "internalType": "uint256",
          "name": "tokenId",
          "type": "uint256"
        }
      ],
      "name": "getApproved",
      "outputs": [
        {
          "internalType": "address",
          "name": "",
          "type": "address"
        }
      ],
      "stateMutability": "view",
      "type": "function"
    },
    {
      "inputs": [
        {
          "internalType": "uint256",
          "name": "tokenId",
          "type": "uint256"
        }
      ],
      "name": "giveResaleApproval",
      "outputs": [],
      "stateMutability": "nonpayable",
      "type": "function"
    },
    {
      "inputs": [
        {
          "internalType": "address",
          "name": "owner",
          "type": "address"
        },
        {
          "internalType": "address",
          "name": "operator",
          "type": "address"
        }
      ],
      "name": "isApprovedForAll",
      "outputs": [
        {
          "internalType": "bool",
          "name": "",
          "type": "bool"
        }
      ],
      "stateMutability": "view",
      "type": "function"
    },
    {
      "inputs": [],
      "name": "name",
      "outputs": [
        {
          "internalType": "string",
          "name": "",
          "type": "string"
        }
      ],
      "stateMutability": "view",
      "type": "function"
    },
    {
      "inputs": [
        {
          "internalType": "uint256",
          "name": "tokenId",
          "type": "uint256"
        }
      ],
      "name": "ownerOf",
      "outputs": [
        {
          "internalType": "address",
          "name": "",
          "type": "address"
        }
      ],
      "stateMutability": "view",
      "type": "function"
    },
    {
      "inputs": [
        {
          "internalType": "address",
          "name": "from",
          "type": "address"
        },
        {
          "internalType": "address",
          "name": "to",
          "type": "address"
        },
        {
          "internalType": "uint256",
          "name": "tokenId",
          "type": "uint256"
        }
      ],
      "name": "safeTransferFrom",
      "outputs": [],
      "stateMutability": "nonpayable",
      "type": "function"
    },
    {
      "inputs": [
        {
          "internalType": "address",
          "name": "from",
          "type": "address"
        },
        {
          "internalType": "address",
          "name": "to",
          "type": "address"
        },
        {
          "internalType": "uint256",
          "name": "tokenId",
          "type": "uint256"
        },
        {
          "internalType": "bytes",
          "name": "_data",
          "type": "bytes"
        }
      ],
      "name": "safeTransferFrom",
      "outputs": [],
      "stateMutability": "nonpayable",
      "type": "function"
    },
    {
      "inputs": [
        {
          "internalType": "address",
          "name": "operator",
          "type": "address"
        },
        {
          "internalType": "bool",
          "name": "approved",
          "type": "bool"
        }
      ],
      "name": "setApprovalForAll",
      "outputs": [],
      "stateMutability": "nonpayable",
      "type": "function"
    },
    {
      "inputs": [
        {
          "internalType": "bytes4",
          "name": "interfaceId",
          "type": "bytes4"
        }
      ],
      "name": "supportsInterface",
      "outputs": [
        {
          "internalType": "bool",
          "name": "",
          "type": "bool"
        }
      ],
      "stateMutability": "view",
      "type": "function"
    },
    {
      "inputs": [],
      "name": "symbol",
      "outputs": [
        {
          "internalType": "string",
          "name": "",
          "type": "string"
        }
      ],
      "stateMutability": "view",
      "type": "function"
    },
    {
      "inputs": [
        {
          "internalType": "uint256",
          "name": "tokenId",
          "type": "uint256"
        }
      ],
      "name": "tokenURI",
      "outputs": [
        {
          "internalType": "string",
          "name": "",
          "type": "string"
        }
      ],
      "stateMutability": "view",
      "type": "function"
    },
    {
      "inputs": [
        {
          "internalType": "address",
          "name": "from",
          "type": "address"
        },
        {
          "internalType": "address",
          "name": "to",
          "type": "address"
        },
        {
          "internalType": "uint256",
          "name": "tokenId",
          "type": "uint256"
        }
      ],
      "name": "transferFrom",
      "outputs": [],
      "stateMutability": "nonpayable",
      "type": "function"
    }
  ],
  "bytecode": "0x60806040523480156200001157600080fd5b506040516200197c3803806200197c83398101604081905262000034916200016e565b604080518082018252601081526f4d657461766572736520546f6b656e7360801b6020808301918252835180850190945260048452631351551560e21b9084015281519192916200008891600091620000c8565b5080516200009e906001906020840190620000c8565b5050600880546001600160a01b0319166001600160a01b03939093169290921790915550620001db565b828054620000d6906200019e565b90600052602060002090601f016020900481019282620000fa576000855562000145565b82601f106200011557805160ff191683800117855562000145565b8280016001018555821562000145579182015b828111156200014557825182559160200191906001019062000128565b506200015392915062000157565b5090565b5b8082111562000153576000815560010162000158565b60006020828403121562000180578081fd5b81516001600160a01b038116811462000197578182fd5b9392505050565b600181811c90821680620001b357607f821691505b60208210811415620001d557634e487b7160e01b600052602260045260246000fd5b50919050565b61179180620001eb6000396000f3fe608060405234801561001057600080fd5b50600436106100f55760003560e01c80636352211e11610097578063a22cb46511610066578063a22cb465146101ff578063b88d4fde14610212578063c87b56dd14610225578063e985e9c51461023857600080fd5b80636352211e146101be57806370a08231146101d15780637e78146c146101e457806395d89b41146101f757600080fd5b8063095ea7b3116100d3578063095ea7b31461016257806323b872dd1461017757806342842e0e1461018a57806345576f941461019d57600080fd5b806301ffc9a7146100fa57806306fdde0314610122578063081812fc14610137575b600080fd5b61010d610108366004611446565b610274565b60405190151581526020015b60405180910390f35b61012a6102c6565b6040516101199190611574565b61014a6101453660046114c4565b610358565b6040516001600160a01b039091168152602001610119565b61017561017036600461141d565b6103e5565b005b61017561018536600461132f565b6104fb565b61017561019836600461132f565b61052c565b6101b06101ab36600461147e565b610547565b604051908152602001610119565b61014a6101cc3660046114c4565b61058f565b6101b06101df3660046112e3565b610606565b6101756101f23660046114c4565b61068d565b61012a61071b565b61017561020d3660046113e3565b61072a565b61017561022036600461136a565b610739565b61012a6102333660046114c4565b610771565b61010d6102463660046112fd565b6001600160a01b03918216600090815260056020908152604080832093909416825291909152205460ff1690565b60006001600160e01b031982166380ac58cd60e01b14806102a557506001600160e01b03198216635b5e139f60e01b145b806102c057506301ffc9a760e01b6001600160e01b03198316145b92915050565b6060600080546102d590611699565b80601f016020809104026020016040519081016040528092919081815260200182805461030190611699565b801561034e5780601f106103235761010080835404028352916020019161034e565b820191906000526020600020905b81548152906001019060200180831161033157829003601f168201915b5050505050905090565b6000610363826108e8565b6103c95760405162461bcd60e51b815260206004820152602c60248201527f4552433732313a20617070726f76656420717565727920666f72206e6f6e657860448201526b34b9ba32b73a103a37b5b2b760a11b60648201526084015b60405180910390fd5b506000908152600460205260409020546001600160a01b031690565b60006103f08261058f565b9050806001600160a01b0316836001600160a01b0316141561045e5760405162461bcd60e51b815260206004820152602160248201527f4552433732313a20617070726f76616c20746f2063757272656e74206f776e656044820152603960f91b60648201526084016103c0565b336001600160a01b038216148061047a575061047a8133610246565b6104ec5760405162461bcd60e51b815260206004820152603860248201527f4552433732313a20617070726f76652063616c6c6572206973206e6f74206f7760448201527f6e6572206e6f7220617070726f76656420666f7220616c6c000000000000000060648201526084016103c0565b6104f68383610905565b505050565b6105053382610973565b6105215760405162461bcd60e51b81526004016103c0906115d9565b6104f6838383610a59565b6104f683838360405180602001604052806000815250610739565b6000610557600780546001019055565b600061056260075490565b905061056e3382610bf9565b6105788184610d2c565b6008546102c0906001600160a01b0316600161072a565b6000818152600260205260408120546001600160a01b0316806102c05760405162461bcd60e51b815260206004820152602960248201527f4552433732313a206f776e657220717565727920666f72206e6f6e657869737460448201526832b73a103a37b5b2b760b91b60648201526084016103c0565b60006001600160a01b0382166106715760405162461bcd60e51b815260206004820152602a60248201527f4552433732313a2062616c616e636520717565727920666f7220746865207a65604482015269726f206164647265737360b01b60648201526084016103c0565b506001600160a01b031660009081526003602052604090205490565b336106978261058f565b6001600160a01b0316146107015760405162461bcd60e51b815260206004820152602b60248201527f596f75206d757374206f776e2074686973204e465420696e206f72646572207460448201526a1bc81c995cd95b1b081a5d60aa1b60648201526084016103c0565b600854610718906001600160a01b0316600161072a565b50565b6060600180546102d590611699565b610735338383610db7565b5050565b6107433383610973565b61075f5760405162461bcd60e51b81526004016103c0906115d9565b61076b84848484610e86565b50505050565b606061077c826108e8565b6107e25760405162461bcd60e51b815260206004820152603160248201527f45524337323155524953746f726167653a2055524920717565727920666f72206044820152703737b732bc34b9ba32b73a103a37b5b2b760791b60648201526084016103c0565b600082815260066020526040812080546107fb90611699565b80601f016020809104026020016040519081016040528092919081815260200182805461082790611699565b80156108745780601f1061084957610100808354040283529160200191610874565b820191906000526020600020905b81548152906001019060200180831161085757829003601f168201915b50505050509050600061089260408051602081019091526000815290565b90508051600014156108a5575092915050565b8151156108d75780826040516020016108bf929190611508565b60405160208183030381529060405292505050919050565b6108e084610eb9565b949350505050565b6000908152600260205260409020546001600160a01b0316151590565b600081815260046020526040902080546001600160a01b0319166001600160a01b038416908117909155819061093a8261058f565b6001600160a01b03167f8c5be1e5ebec7d5bd14f71427d1e84f3dd0314c0f7b2291e5b200ac8c7c3b92560405160405180910390a45050565b600061097e826108e8565b6109df5760405162461bcd60e51b815260206004820152602c60248201527f4552433732313a206f70657261746f7220717565727920666f72206e6f6e657860448201526b34b9ba32b73a103a37b5b2b760a11b60648201526084016103c0565b60006109ea8361058f565b9050806001600160a01b0316846001600160a01b03161480610a255750836001600160a01b0316610a1a84610358565b6001600160a01b0316145b806108e057506001600160a01b0380821660009081526005602090815260408083209388168352929052205460ff166108e0565b826001600160a01b0316610a6c8261058f565b6001600160a01b031614610ad45760405162461bcd60e51b815260206004820152602960248201527f4552433732313a207472616e73666572206f6620746f6b656e2074686174206960448201526839903737ba1037bbb760b91b60648201526084016103c0565b6001600160a01b038216610b365760405162461bcd60e51b8152602060048201526024808201527f4552433732313a207472616e7366657220746f20746865207a65726f206164646044820152637265737360e01b60648201526084016103c0565b610b41600082610905565b6001600160a01b0383166000908152600360205260408120805460019290610b6a908490611656565b90915550506001600160a01b0382166000908152600360205260408120805460019290610b9890849061162a565b909155505060008181526002602052604080822080546001600160a01b0319166001600160a01b0386811691821790925591518493918716917fddf252ad1be2c89b69c2b068fc378daa952ba7f163c4a11628f55a4df523b3ef91a4505050565b6001600160a01b038216610c4f5760405162461bcd60e51b815260206004820181905260248201527f4552433732313a206d696e7420746f20746865207a65726f206164647265737360448201526064016103c0565b610c58816108e8565b15610ca55760405162461bcd60e51b815260206004820152601c60248201527f4552433732313a20746f6b656e20616c7265616479206d696e7465640000000060448201526064016103c0565b6001600160a01b0382166000908152600360205260408120805460019290610cce90849061162a565b909155505060008181526002602052604080822080546001600160a01b0319166001600160a01b03861690811790915590518392907fddf252ad1be2c89b69c2b068fc378daa952ba7f163c4a11628f55a4df523b3ef908290a45050565b610d35826108e8565b610d985760405162461bcd60e51b815260206004820152602e60248201527f45524337323155524953746f726167653a2055524920736574206f66206e6f6e60448201526d32bc34b9ba32b73a103a37b5b2b760911b60648201526084016103c0565b600082815260066020908152604090912082516104f6928401906111b8565b816001600160a01b0316836001600160a01b03161415610e195760405162461bcd60e51b815260206004820152601960248201527f4552433732313a20617070726f766520746f2063616c6c65720000000000000060448201526064016103c0565b6001600160a01b03838116600081815260056020908152604080832094871680845294825291829020805460ff191686151590811790915591519182527f17307eab39ab6107e8899845ad3d59bd9653f200f220920489ca2b5937696c31910160405180910390a3505050565b610e91848484610a59565b610e9d84848484610f91565b61076b5760405162461bcd60e51b81526004016103c090611587565b6060610ec4826108e8565b610f285760405162461bcd60e51b815260206004820152602f60248201527f4552433732314d657461646174613a2055524920717565727920666f72206e6f60448201526e3732bc34b9ba32b73a103a37b5b2b760891b60648201526084016103c0565b6000610f3f60408051602081019091526000815290565b90506000815111610f5f5760405180602001604052806000815250610f8a565b80610f698461109e565b604051602001610f7a929190611508565b6040516020818303038152906040525b9392505050565b60006001600160a01b0384163b1561109357604051630a85bd0160e11b81526001600160a01b0385169063150b7a0290610fd5903390899088908890600401611537565b602060405180830381600087803b158015610fef57600080fd5b505af192505050801561101f575060408051601f3d908101601f1916820190925261101c91810190611462565b60015b611079573d80801561104d576040519150601f19603f3d011682016040523d82523d6000602084013e611052565b606091505b5080516110715760405162461bcd60e51b81526004016103c090611587565b805181602001fd5b6001600160e01b031916630a85bd0160e11b1490506108e0565b506001949350505050565b6060816110c25750506040805180820190915260018152600360fc1b602082015290565b8160005b81156110ec57806110d6816116d4565b91506110e59050600a83611642565b91506110c6565b60008167ffffffffffffffff81111561111557634e487b7160e01b600052604160045260246000fd5b6040519080825280601f01601f19166020018201604052801561113f576020820181803683370190505b5090505b84156108e057611154600183611656565b9150611161600a866116ef565b61116c90603061162a565b60f81b81838151811061118f57634e487b7160e01b600052603260045260246000fd5b60200101906001600160f81b031916908160001a9053506111b1600a86611642565b9450611143565b8280546111c490611699565b90600052602060002090601f0160209004810192826111e6576000855561122c565b82601f106111ff57805160ff191683800117855561122c565b8280016001018555821561122c579182015b8281111561122c578251825591602001919060010190611211565b5061123892915061123c565b5090565b5b80821115611238576000815560010161123d565b600067ffffffffffffffff8084111561126c5761126c61172f565b604051601f8501601f19908116603f011681019082821181831017156112945761129461172f565b816040528093508581528686860111156112ad57600080fd5b858560208301376000602087830101525050509392505050565b80356001600160a01b03811681146112de57600080fd5b919050565b6000602082840312156112f4578081fd5b610f8a826112c7565b6000806040838503121561130f578081fd5b611318836112c7565b9150611326602084016112c7565b90509250929050565b600080600060608486031215611343578081fd5b61134c846112c7565b925061135a602085016112c7565b9150604084013590509250925092565b6000806000806080858703121561137f578081fd5b611388856112c7565b9350611396602086016112c7565b925060408501359150606085013567ffffffffffffffff8111156113b8578182fd5b8501601f810187136113c8578182fd5b6113d787823560208401611251565b91505092959194509250565b600080604083850312156113f5578182fd5b6113fe836112c7565b915060208301358015158114611412578182fd5b809150509250929050565b6000806040838503121561142f578182fd5b611438836112c7565b946020939093013593505050565b600060208284031215611457578081fd5b8135610f8a81611745565b600060208284031215611473578081fd5b8151610f8a81611745565b60006020828403121561148f578081fd5b813567ffffffffffffffff8111156114a5578182fd5b8201601f810184136114b5578182fd5b6108e084823560208401611251565b6000602082840312156114d5578081fd5b5035919050565b600081518084526114f481602086016020860161166d565b601f01601f19169290920160200192915050565b6000835161151a81846020880161166d565b83519083019061152e81836020880161166d565b01949350505050565b6001600160a01b038581168252841660208201526040810183905260806060820181905260009061156a908301846114dc565b9695505050505050565b602081526000610f8a60208301846114dc565b60208082526032908201527f4552433732313a207472616e7366657220746f206e6f6e20455243373231526560408201527131b2b4bb32b91034b6b83632b6b2b73a32b960711b606082015260800190565b60208082526031908201527f4552433732313a207472616e736665722063616c6c6572206973206e6f74206f6040820152701ddb995c881b9bdc88185c1c1c9bdd9959607a1b606082015260800190565b6000821982111561163d5761163d611703565b500190565b60008261165157611651611719565b500490565b60008282101561166857611668611703565b500390565b60005b83811015611688578181015183820152602001611670565b8381111561076b5750506000910152565b600181811c908216806116ad57607f821691505b602082108114156116ce57634e487b7160e01b600052602260045260246000fd5b50919050565b60006000198214156116e8576116e8611703565b5060010190565b6000826116fe576116fe611719565b500690565b634e487b7160e01b600052601160045260246000fd5b634e487b7160e01b600052601260045260246000fd5b634e487b7160e01b600052604160045260246000fd5b6001600160e01b03198116811461071857600080fdfea264697066735822122028ffb81bc554f51c476da28121444d384ec5226cb1c609c8eb997a603afbc38664736f6c63430008040033",
  "linkReferences": {},
  "deployedLinkReferences": {}
}