{
  "_format": "hh-sol-artifact-1",
  "contractName": "NFTMarket",
  "sourceName": "contracts/NFTMarket.sol",
  "abi": [
    {
      "inputs": [],
      "stateMutability": "nonpayable",
      "type": "constructor"
    },
    {
      "anonymous": false,
      "inputs": [
        {
          "indexed": true,
          "internalType": "uint256",
          "name": "itemId",
          "type": "uint256"
        },
        {
          "indexed": true,
          "internalType": "address",
          "name": "nftContract",
          "type": "address"
        },
        {
          "indexed": true,
          "internalType": "uint256",
          "name": "tokenId",
          "type": "uint256"
        },
        {
          "indexed": false,
          "internalType": "address",
          "name": "seller",
          "type": "address"
        },
        {
          "indexed": false,
          "internalType": "address",
          "name": "owner",
          "type": "address"
        },
        {
          "indexed": false,
          "internalType": "uint256",
          "name": "price",
          "type": "uint256"
        },
        {
          "indexed": false,
          "internalType": "bool",
          "name": "sold",
          "type": "bool"
        }
      ],
      "name": "ItemListed",
      "type": "event"
    },
    {
      "anonymous": false,
      "inputs": [
        {
          "indexed": true,
          "internalType": "uint256",
          "name": "itemId",
          "type": "uint256"
        },
        {
          "indexed": true,
          "internalType": "address",
          "name": "nftContract",
          "type": "address"
        },
        {
          "indexed": true,
          "internalType": "uint256",
          "name": "tokenId",
          "type": "uint256"
        },
        {
          "indexed": false,
          "internalType": "address",
          "name": "seller",
          "type": "address"
        },
        {
          "indexed": false,
          "internalType": "address",
          "name": "owner",
          "type": "address"
        },
        {
          "indexed": false,
          "internalType": "uint256",
          "name": "price",
          "type": "uint256"
        },
        {
          "indexed": false,
          "internalType": "bool",
          "name": "sold",
          "type": "bool"
        }
      ],
      "name": "MarketItemCreated",
      "type": "event"
    },
    {
      "inputs": [
        {
          "internalType": "address",
          "name": "nftContract",
          "type": "address"
        },
        {
          "internalType": "uint256",
          "name": "tokenId",
          "type": "uint256"
        },
        {
          "internalType": "uint256",
          "name": "price",
          "type": "uint256"
        }
      ],
      "name": "createMarketItem",
      "outputs": [],
      "stateMutability": "payable",
      "type": "function"
    },
    {
      "inputs": [
        {
          "internalType": "address",
          "name": "nftContract",
          "type": "address"
        },
        {
          "internalType": "uint256",
          "name": "itemId",
          "type": "uint256"
        }
      ],
      "name": "createMarketSale",
      "outputs": [],
      "stateMutability": "payable",
      "type": "function"
    },
    {
      "inputs": [
        {
          "internalType": "uint256",
          "name": "tokenId",
          "type": "uint256"
        }
      ],
      "name": "fetchItemDetails",
      "outputs": [
        {
          "components": [
            {
              "internalType": "uint256",
              "name": "itemId",
              "type": "uint256"
            },
            {
              "internalType": "address",
              "name": "nftContract",
              "type": "address"
            },
            {
              "internalType": "uint256",
              "name": "tokenId",
              "type": "uint256"
            },
            {
              "internalType": "address payable",
              "name": "seller",
              "type": "address"
            },
            {
              "internalType": "address payable",
              "name": "owner",
              "type": "address"
            },
            {
              "internalType": "uint256",
              "name": "price",
              "type": "uint256"
            },
            {
              "internalType": "bool",
              "name": "sold",
              "type": "bool"
            }
          ],
          "internalType": "struct NFTMarket.MarketItem[]",
          "name": "",
          "type": "tuple[]"
        }
      ],
      "stateMutability": "view",
      "type": "function"
    },
    {
      "inputs": [],
      "name": "fetchItemsCreated",
      "outputs": [
        {
          "components": [
            {
              "internalType": "uint256",
              "name": "itemId",
              "type": "uint256"
            },
            {
              "internalType": "address",
              "name": "nftContract",
              "type": "address"
            },
            {
              "internalType": "uint256",
              "name": "tokenId",
              "type": "uint256"
            },
            {
              "internalType": "address payable",
              "name": "seller",
              "type": "address"
            },
            {
              "internalType": "address payable",
              "name": "owner",
              "type": "address"
            },
            {
              "internalType": "uint256",
              "name": "price",
              "type": "uint256"
            },
            {
              "internalType": "bool",
              "name": "sold",
              "type": "bool"
            }
          ],
          "internalType": "struct NFTMarket.MarketItem[]",
          "name": "",
          "type": "tuple[]"
        }
      ],
      "stateMutability": "view",
      "type": "function"
    },
    {
      "inputs": [],
      "name": "fetchMarketItems",
      "outputs": [
        {
          "components": [
            {
              "internalType": "uint256",
              "name": "itemId",
              "type": "uint256"
            },
            {
              "internalType": "address",
              "name": "nftContract",
              "type": "address"
            },
            {
              "internalType": "uint256",
              "name": "tokenId",
              "type": "uint256"
            },
            {
              "internalType": "address payable",
              "name": "seller",
              "type": "address"
            },
            {
              "internalType": "address payable",
              "name": "owner",
              "type": "address"
            },
            {
              "internalType": "uint256",
              "name": "price",
              "type": "uint256"
            },
            {
              "internalType": "bool",
              "name": "sold",
              "type": "bool"
            }
          ],
          "internalType": "struct NFTMarket.MarketItem[]",
          "name": "",
          "type": "tuple[]"
        }
      ],
      "stateMutability": "view",
      "type": "function"
    },
    {
      "inputs": [],
      "name": "fetchMyNFTs",
      "outputs": [
        {
          "components": [
            {
              "internalType": "uint256",
              "name": "itemId",
              "type": "uint256"
            },
            {
              "internalType": "address",
              "name": "nftContract",
              "type": "address"
            },
            {
              "internalType": "uint256",
              "name": "tokenId",
              "type": "uint256"
            },
            {
              "internalType": "address payable",
              "name": "seller",
              "type": "address"
            },
            {
              "internalType": "address payable",
              "name": "owner",
              "type": "address"
            },
            {
              "internalType": "uint256",
              "name": "price",
              "type": "uint256"
            },
            {
              "internalType": "bool",
              "name": "sold",
              "type": "bool"
            }
          ],
          "internalType": "struct NFTMarket.MarketItem[]",
          "name": "",
          "type": "tuple[]"
        }
      ],
      "stateMutability": "view",
      "type": "function"
    },
    {
      "inputs": [],
      "name": "getListingPrice",
      "outputs": [
        {
          "internalType": "uint256",
          "name": "",
          "type": "uint256"
        }
      ],
      "stateMutability": "view",
      "type": "function"
    },
    {
      "inputs": [
        {
          "internalType": "address",
          "name": "nftContract",
          "type": "address"
        },
        {
          "internalType": "uint256",
          "name": "itemId",
          "type": "uint256"
        },
        {
          "internalType": "uint256",
          "name": "price",
          "type": "uint256"
        }
      ],
      "name": "listSoldItemToMarket",
      "outputs": [],
      "stateMutability": "payable",
      "type": "function"
    }
  ],
  "bytecode": "0x60806040526658d15e1762800060045534801561001b57600080fd5b506001600055600380546001600160a01b03191633179055611149806100426000396000f3fe60806040526004361061007b5760003560e01c806358eb2df51161004e57806358eb2df5146100fe5780636f319ebf14610113578063c23b139e14610126578063f064c32e1461013957600080fd5b80630adf03a7146100805780630f08efe0146100b657806312e85585146100cb578063202e3740146100e9575b600080fd5b34801561008c57600080fd5b506100a061009b366004610f8c565b61014e565b6040516100ad9190610fa4565b60405180910390f35b3480156100c257600080fd5b506100a0610333565b3480156100d757600080fd5b506004546040519081526020016100ad565b3480156100f557600080fd5b506100a06104db565b61011161010c366004610f5a565b6106c1565b005b610111610121366004610f5a565b6108fd565b610111610134366004610f31565b610ab0565b34801561014557600080fd5b506100a0610c9c565b6060600061015b60015490565b905060008060005b838110156101be57336005600061017b8460016110b3565b81526020810191909152604001600020600401546001600160a01b031614156101ac576101a96001846110b3565b92505b806101b6816110e2565b915050610163565b5060008267ffffffffffffffff8111156101e857634e487b7160e01b600052604160045260246000fd5b60405190808252806020026020018201604052801561022157816020015b61020e610ed9565b8152602001906001900390816102065790505b50905060005b8481101561032957866005600061023f8460016110b3565b81526020019081526020016000206002015414156103175760006102648260016110b3565b600081815260056020818152604092839020835160e0810185528154815260018201546001600160a01b0390811693820193909352600282015494810194909452600381015482166060850152600481015490911660808401529081015460a0830152600681015460ff16151560c08301528551929350918590879081106102fc57634e487b7160e01b600052603260045260246000fd5b60209081029190910101526103126001866110b3565b945050505b80610321816110e2565b915050610227565b5095945050505050565b6060600061034060015490565b9050600061034d60025490565b60015461035a91906110cb565b90506000808267ffffffffffffffff81111561038657634e487b7160e01b600052604160045260246000fd5b6040519080825280602002602001820160405280156103bf57816020015b6103ac610ed9565b8152602001906001900390816103a45790505b50905060005b848110156104d25760006005816103dd8460016110b3565b81526020810191909152604001600020600401546001600160a01b031614156104c057600061040d8260016110b3565b600081815260056020818152604092839020835160e0810185528154815260018201546001600160a01b0390811693820193909352600282015494810194909452600381015482166060850152600481015490911660808401529081015460a0830152600681015460ff16151560c08301528551929350918590879081106104a557634e487b7160e01b600052603260045260246000fd5b60209081029190910101526104bb6001866110b3565b945050505b806104ca816110e2565b9150506103c5565b50949350505050565b606060006104e860015490565b905060008060005b8381101561054b5733600560006105088460016110b3565b81526020810191909152604001600020600401546001600160a01b03161415610539576105366001846110b3565b92505b80610543816110e2565b9150506104f0565b5060008267ffffffffffffffff81111561057557634e487b7160e01b600052604160045260246000fd5b6040519080825280602002602001820160405280156105ae57816020015b61059b610ed9565b8152602001906001900390816105935790505b50905060005b848110156104d25733600560006105cc8460016110b3565b81526020810191909152604001600020600401546001600160a01b031614156106af5760006105fc8260016110b3565b600081815260056020818152604092839020835160e0810185528154815260018201546001600160a01b0390811693820193909352600282015494810194909452600381015482166060850152600481015490911660808401529081015460a0830152600681015460ff16151560c083015285519293509185908790811061069457634e487b7160e01b600052603260045260246000fd5b60209081029190910101526106aa6001866110b3565b945050505b806106b9816110e2565b9150506105b4565b600260005414156106ed5760405162461bcd60e51b81526004016106e49061107c565b60405180910390fd5b60026000558061073f5760405162461bcd60e51b815260206004820152601c60248201527f5072696365206d757374206265206174206c656173742031207765690000000060448201526064016106e4565b60045434146107605760405162461bcd60e51b81526004016106e490611038565b61076e600180546001019055565b600061077960015490565b6040805160e0810182528281526001600160a01b0387811660208084018281528486018a8152336060870181815260006080890181815260a08a018e815260c08b018381528d8452600598899052928c90209a518b55955160018b018054918b166001600160a01b0319928316179055945160028b0155915160038a018054918a1691861691909117905590516004808a01805492909916919094161790965591519286019290925592516006909401805494151560ff199095169490941790935592516323b872dd60e01b81529182015230602482015260448101869052919250906323b872dd90606401600060405180830381600087803b15801561087f57600080fd5b505af1158015610893573d6000803e3d6000fd5b50506040805133815260006020820181905291810186905260608101919091528592506001600160a01b038716915083907f045dfa01dcba2b36aba1d3dc4a874f4b0c5d2fbeb8d2c4b34a7d88c8d8f929d1906080015b60405180910390a4505060016000555050565b600260005414156109205760405162461bcd60e51b81526004016106e49061107c565b600260008181558381526005602052604090200154816109825760405162461bcd60e51b815260206004820152601c60248201527f5072696365206d757374206265206174206c656173742031207765690000000060448201526064016106e4565b60045434146109a35760405162461bcd60e51b81526004016106e490611038565b6040516323b872dd60e01b8152336004820152306024820152604481018290526001600160a01b038516906323b872dd90606401600060405180830381600087803b1580156109f157600080fd5b505af1158015610a05573d6000803e3d6000fd5b505050600084815260056020819052604090912060068101805460ff191690559081018490556003810180546001600160a01b0319908116331790915560049091018054909116905550610a596002610e82565b60408051338152600060208201819052918101849052606081019190915281906001600160a01b0386169085907f71d28ca3d9325c4658993ef079dc69b4f2cf376e7388cc15c297167d61c3583a906080016108ea565b60026000541415610ad35760405162461bcd60e51b81526004016106e49061107c565b6002600081815582815260056020819052604090912090810154910154348214610b67576040805162461bcd60e51b81526020600482015260248101919091527f506c65617365207375626d6974207468652061736b696e67207072696365206960448201527f6e206f7264657220746f20636f6d706c6574652074686520707572636861736560648201526084016106e4565b6000838152600560205260408082206003015490516001600160a01b03909116913480156108fc02929091818181858888f19350505050158015610baf573d6000803e3d6000fd5b506040516323b872dd60e01b8152306004820152336024820152604481018290526001600160a01b038516906323b872dd90606401600060405180830381600087803b158015610bfe57600080fd5b505af1158015610c12573d6000803e3d6000fd5b50505060008481526005602052604090206004810180546001600160a01b03191633179055600601805460ff1916600117905550610c54600280546001019055565b6003546004546040516001600160a01b039092169181156108fc0291906000818181858888f19350505050158015610c90573d6000803e3d6000fd5b50506001600055505050565b60606000610ca960015490565b905060008060005b83811015610d0c573360056000610cc98460016110b3565b81526020810191909152604001600020600301546001600160a01b03161415610cfa57610cf76001846110b3565b92505b80610d04816110e2565b915050610cb1565b5060008267ffffffffffffffff811115610d3657634e487b7160e01b600052604160045260246000fd5b604051908082528060200260200182016040528015610d6f57816020015b610d5c610ed9565b815260200190600190039081610d545790505b50905060005b848110156104d2573360056000610d8d8460016110b3565b81526020810191909152604001600020600301546001600160a01b03161415610e70576000610dbd8260016110b3565b600081815260056020818152604092839020835160e0810185528154815260018201546001600160a01b0390811693820193909352600282015494810194909452600381015482166060850152600481015490911660808401529081015460a0830152600681015460ff16151560c0830152855192935091859087908110610e5557634e487b7160e01b600052603260045260246000fd5b6020908102919091010152610e6b6001866110b3565b945050505b80610e7a816110e2565b915050610d75565b805480610ed15760405162461bcd60e51b815260206004820152601b60248201527f436f756e7465723a2064656372656d656e74206f766572666c6f77000000000060448201526064016106e4565b600019019055565b6040805160e081018252600080825260208201819052918101829052606081018290526080810182905260a0810182905260c081019190915290565b80356001600160a01b0381168114610f2c57600080fd5b919050565b60008060408385031215610f43578182fd5b610f4c83610f15565b946020939093013593505050565b600080600060608486031215610f6e578081fd5b610f7784610f15565b95602085013595506040909401359392505050565b600060208284031215610f9d578081fd5b5035919050565b602080825282518282018190526000919060409081850190868401855b8281101561102b57815180518552868101516001600160a01b039081168887015286820151878701526060808301518216908701526080808301519091169086015260a0808201519086015260c09081015115159085015260e09093019290850190600101610fc1565b5091979650505050505050565b60208082526024908201527f5072696365206d75737420626520657175616c20746f206c697374696e6720706040820152637269636560e01b606082015260800190565b6020808252601f908201527f5265656e7472616e637947756172643a207265656e7472616e742063616c6c00604082015260600190565b600082198211156110c6576110c66110fd565b500190565b6000828210156110dd576110dd6110fd565b500390565b60006000198214156110f6576110f66110fd565b5060010190565b634e487b7160e01b600052601160045260246000fdfea2646970667358221220e99e1813d1e80e255b340cd305617e43e2a6f5a9feef06e588904b9a23f7cd7164736f6c63430008040033",
  "linkReferences": {},
  "deployedLinkReferences": {}
}